:100000000C9474000C9495000C9495000C9495003D
:100010000C9495000C9495000C9495000C9495000C
:100020000C9495000C9495000C9495000C949500FC
:100030000C9495000C9495000C9495000C949500EC
:100040000C9495000C9495000C9495000C949500DC
:100050000C9495000C9495000C9495000C949500CC
:100060000C9495000C9495000C9495000C949500BC
:100070000C9495000C9495000C9495000C949500AC
:100080000C9495000C9495000C9495000C9495009C
:100090000C9495000C9495000C9495000C9495008C
:1000A0000C9495000C9495000C9495000C9495007C
:1000B0000C9495000C9495000C9495000C9495006C
:1000C0000C9495000C9495000C9495000C9495005C
:1000D0000C9495000C9495000C9495000C9495004C
:1000E0000C9495000C94AC0011241FBECFEFD1E20C
:1000F000DEBFCDBF00E00CBF12E0A0E0B2E0E6EA58
:10010000FBE000E00BBF02C007900D92AA32B107DE
:10011000D9F722E0AAE2B2E001C01D92A033B207F3
:10012000E1F70E94FF000C94D1050C940000F894B4
:10013000ECE7F0E0108280818160808380818064C0
:100140008083EAE7F0E0108280818068808380818C
:1001500083608083789408958A3049F09091C0003C
:1001600095FFFCCF8093C60080E090E008959091C9
:10017000C00095FFFCCF9DE09093C600EFCF909319
:10018000C5008093C40086E08093C20088E9809314
:10019000C10008959091C00095FFFCCF8093C600E8
:1001A00008958091C00087FFFCCF8091C60008951C
:1001B0008091C000881F8827881F0895FC01208136
:1001C000222351F031969091C00095FFFCCF2093EF
:1001D000C60021912111F7CF089580E092E090931D
:1001E0002D0280932C021092C50082E38093C400FC
:1001F00086E08093C20088E98093C1000895CF9380
:10020000DF93CDB7DEB72E970FB6F894DEBF0FBEE3
:10021000CDBF0E94ED000E949700CE0101966C01B7
:100220003CE0332E4EE0842E42E0942E1E861D8646
:10023000F601832D11928A95E9F7E12CF12C02E366
:1002400010E0412C512C320180917A00806480931F
:100250007A0080917A0086FF09C08D859E8501967F
:100260009E878D8780917A0086FDF7CF6091780018
:100270007091790080E090E00E9408029B01AC013F
:10028000C301B2010E949C012B013C0101501109E4
:10029000D9F62AE037ED43EA5CE30E9496022AE0B1
:1002A00038E240EA5BE30E949602F701EE0FFF1F7F
:1002B000EE0FFF1FEC0DFD1D60837183828393831E
:1002C0009FEFE91AF90A80917C008E5F80937C0091
:1002D000E3E0EE16F10409F0B2CF10927C008091B9
:1002E0007C00816080937C0080917C00806480939E
:1002F0007C0009851A852B853C854D815E816F8147
:10030000788589819A81AB81BC813F932F931F931C
:100310000F937F936F935F934F93BF93AF939F938D
:100320008F939F928F920E9403030FB6F894DEBFC3
:100330000FBECDBF7BCF5058BB27AA270E94B30169
:100340000C945C020E944E0238F00E94550220F08C
:1003500039F49F3F19F426F40C944B020EF4E09507
:10036000E7FB0C944502E92F0E946D0258F3BA177F
:10037000620773078407950720F079F4A6F50C94BB
:100380008F020EF4E0950B2EBA2FA02D0B01B901B0
:1003900090010C01CA01A0011124FF27591B99F0FB
:1003A000593F50F4503E68F11A16F040A22F232F07
:1003B000342F4427585FF3CF469537952795A79557
:1003C000F0405395C9F77EF41F16BA0B620B730BFE
:1003D000840BBAF09150A1F0FF0FBB1F661F771F6F
:1003E000881FC2F70EC0BA0F621F731F841F48F424
:1003F000879577956795B795F7959E3F08F0B0CFAD
:100400009395880F08F09927EE0F97958795089593
:10041000E89409C097FB3EF490958095709561959E
:100420007F4F8F4F9F4F9923A9F0F92F96E9BB2754
:100430009395F695879577956795B795F111F8CFD0
:10044000FAF4BB0F11F460FF1BC06F5F7F4F8F4F3B
:100450009F4F16C0882311F096E911C0772321F031
:100460009EE8872F762F05C0662371F096E8862FC9
:1004700070E060E02AF09A95660F771F881FDAF720
:10048000880F9695879597F9089597F99F6780E863
:1004900070E060E008959FEF80EC089500240A94D6
:1004A0001616170618060906089500240A9412164F
:1004B0001306140605060895092E0394000C11F482
:1004C000882352F0BB0F40F4BF2B11F460FF04C02F
:1004D0006F5F7F4F8F4F9F4F089557FD9058440F88
:1004E000551F59F05F3F71F04795880F97FB991F93
:1004F00061F09F3F79F08795089512161306140650
:10050000551FF2CF4695F1DF08C0161617061806DC
:10051000991FF1CF86957105610508940895E894B7
:10052000BB2766277727CB0197F908950E94A90278
:100530000C945C020E944E0238F00E94550220F09A
:10054000952311F00C9445020C944B0211240C9449
:1005500090020E946D0270F3959FC1F3950F50E0D9
:10056000551F629FF001729FBB27F00DB11D639F65
:10057000AA27F00DB11DAA1F649F6627B00DA11D0B
:10058000661F829F2227B00DA11D621F739FB00DB1
:10059000A11D621F839FA00D611D221F749F332721
:1005A000A00D611D231F849F600D211D822F762FBA
:1005B0006A2F11249F5750409AF0F1F088234AF097
:1005C000EE0FFF1FBB1F661F771F881F9150504003
:1005D000A9F79E3F510580F00C9445020C949002BF
:1005E0005F3FE4F3983ED4F3869577956795B7958A
:1005F000F795E7959F5FC1F7FE2B880F911D9695A4
:10060000879597F90895CF93DF93CDB7DEB7AE0105
:100610004A5F5F4FFA0161917191AF0180912C02A5
:1006200090912D020E941703DF91CF9108952F9290
:100630003F924F925F926F927F928F929F92AF9272
:10064000BF92CF92DF92EF92FF920F931F93CF93BF
:10065000DF93CDB7DEB72B970FB6F894DEBF0FBE92
:10066000CDBF6C017B018A01FC0117821682838158
:1006700081FFCCC1CE0101963C01F6019381F701C7
:1006800093FD859193FF81917F01882309F4BAC17D
:10069000853239F493FD859193FF81917F018532F5
:1006A00029F4B60190E00E943705E7CF912C212C68
:1006B000312CFFE1F315D8F08B3279F038F4803229
:1006C00079F08332A1F4232D20611DC08D3261F0B9
:1006D000803369F4232D216016C0832D8260382E6B
:1006E000E32DE4603E2E2AC0F32DF8601DC037FCD8
:1006F0002DC020ED280F2A3040F08E32B9F436FCA0
:1007000081C1232D2064322E19C036FE06C08AE036
:10071000989E200D1124922E11C0EAE02E9E200DED
:100720001124222EF32DF0623F2E08C08C3621F4C6
:10073000832D8068382E02C0883641F4F70193FD7E
:10074000859193FF81917F018111B3CF982F9F7D78
:100750009554933028F40C5F1F4F9FE399830DC08D
:10076000833631F0833771F0833509F059C021C0E9
:10077000F801808189830E5F1F4F88248394912C18
:10078000530113C02801F2E04F0E511CF801A08064
:10079000B18036FE03C0692D70E002C06FEF7FEFBD
:1007A000C5010E942C054C018201F32DFF773F2EDD
:1007B00016C0280122E0420E511CF801A080B18031
:1007C00036FE03C0692D70E002C06FEF7FEFC501F8
:1007D0000E9421054C01F32DF0683F2E820133FC6D
:1007E0001BC0822D90E088169906B0F4B60180E215
:1007F00090E00E9437052A94F4CFF50137FC8591EB
:1008000037FE81915F01B60190E00E94370521100B
:100810002A9421E0821A91088114910471F7E8C0AA
:10082000843611F0893641F5F80137FE07C0608142
:100830007181828193810C5F1F4F08C0608171813B
:10084000072E000C880B990B0E5F1F4FF32DFF76C0
:100850003F2E97FF09C090958095709561957F4FC9
:100860008F4F9F4FF0683F2E2AE030E0A3010E9497
:100870007305882E861845C0853731F4232D2F7EC9
:10088000B22E2AE030E025C0932D997FB92E8F3605
:10089000C1F018F4883579F0B5C0803719F0883781
:1008A00021F0B0C0E92FE061BE2EB4FE0DC0FB2DDB
:1008B000F460BF2E09C034FE0AC0292F2660B22E74
:1008C00006C028E030E005C020E130E002C020E1B1
:1008D00032E0F801B7FE07C06081718182819381A7
:1008E0000C5F1F4F06C06081718180E090E00E5F59
:1008F0001F4FA3010E947305882E8618FB2DFF77DA
:100900003F2E36FE0DC0232D2E7FA22E891458F4C3
:1009100034FE0BC032FC09C0832D8E7EA82E05C08C
:10092000B82CA32C03C0B82C01C0B92CA4FE0FC056
:10093000FE01E80DF11D8081803321F49A2D997E0E
:10094000A92E09C0A2FE06C0B394B39404C08A2D98
:10095000867809F0B394A3FC11C0A0FE06C0B214BF
:1009600088F4280C922C9B180EC0B21460F4B601C7
:1009700080E290E00E943705B394F7CFB21418F4E8
:100980002B1802C0982C212CA4FE10C0B60180E3C5
:1009900090E00E943705A2FE17C0A1FC03C088E7C3
:1009A00090E002C088E590E0B6010CC08A2D867800
:1009B00059F0A1FE02C08BE201C080E2A7FC8DE2EB
:1009C000B60190E00E943705891438F4B60180E33F
:1009D00090E00E9437059A94F7CF8A94F301E80DCE
:1009E000F11D8081B60190E00E9437058110F5CF9E
:1009F000222009F442CEB60180E290E00E94370541
:100A00002A94F6CFF6018681978102C08FEF9FEF7F
:100A10002B960FB6F894DEBF0FBECDBFDF91CF91FE
:100A20001F910F91FF90EF90DF90CF90BF90AF900C
:100A30009F908F907F906F905F904F903F902F90FE
:100A40000895FC010590615070400110D8F7809521
:100A500090958E0F9F1F0895FC016150704001908A
:100A60000110D8F7809590958E0F9F1F08950F93D2
:100A70001F93CF93DF93FB01238121FD03C08FEFF1
:100A80009FEF2CC022FF16C04681578124813581FB
:100A90004217530744F4A081B1819D012F5F3F4F5E
:100AA000318320838C93268137812F5F3F4F37839B
:100AB000268314C08B01EC01FB010084F185E02D3D
:100AC0001995892BE1F6D80116968D919C9117976F
:100AD000019617969C938E931697CE01DF91CF9136
:100AE0001F910F910895FA01AA27283051F1203162
:100AF00081F1E8946F936E7F6E5F7F4F8F4F9F4FB2
:100B0000AF4FB1E03ED0B4E03CD0670F781F891FF3
:100B10009A1FA11D680F791F8A1F911DA11D6A0FC1
:100B2000711D811D911DA11D20D009F468943F9174
:100B30002AE0269F11243019305D3193DEF6CF0173
:100B40000895462F4770405D4193B3E00FD0C9F739
:100B5000F6CF462F4F70405D4A3318F0495D31FDA6
:100B60004052419302D0A9F7EACFB4E0A6959795F9
:100B7000879577956795BA95C9F7009761057105CF
:100B800008959B01AC010A2E069457954795379519
:100B90002795BA95C9F7620F731F841F951FA01D73
:060BA0000895F894FFCF58
:100BA6000000000200000000AC000000000025323A
:100BB600302E31386C662C2532302E31386C662C4E
:0A0BC6002532302E31386C660A002B
:00000001FF
